:020000040800F2
:100000007807002029020008210900085707000886
:100010001D090008D10200087F0D00080000000043
:10002000000000000000000000000000E1090008DE
:1000300039040008000000009D0900082D0C00088C
:10004000430200084302000843020008430200087C
:1000500043020008430200083D0400088D04000824
:10006000430200084302000843020008430200085C
:10007000430200084302000843020008430200084C
:10008000430200084302000843020008430200083C
:10009000430200084302000843020008430200082C
:1000A000430200084302000843020008430200081C
:1000B000430200084302000843020008430200080C
:1000C00043020008430200084302000843020008FC
:1000D00043020008990C000843020008430200088C
:1000E00043020008430200084302000843020008DC
:1000F00043020008430200084302000843020008CC
:1001000043020008430200084302000843020008BB
:1001100043020008430200084302000843020008AB
:10012000430200084302000843020008430200089B
:10013000430200084302000843020008430200088B
:10014000430200084302000843020008430200087B
:10015000430200084302000843020008430200086B
:10016000430200084302000843020008430200085B
:10017000430200084302000843020008430200084B
:10018000430200084302000800F002F800F03CF8C7
:100190000AA090E8000C82448344AAF10107DA45E2
:1001A00001D100F031F8AFF2090EBAE80F0013F0F8
:1001B000010F18BFFB1A43F001031847D80F0000C6
:1001C000F80F0000103A24BF78C878C1FAD8520757
:1001D00024BF30C830C144BF04680C6070470000C1
:1001E0000023002400250026103A28BF78C1FBD840
:1001F000520728BF30C148BF0B6070471FB500F0E1
:10020000C3FF1FBD10B510BD00F033F81146FFF756
:10021000F5FF00F03FFE00F051F803B4FFF7F2FFE6
:1002200003BC00F0AEFD00000948804709480047C4
:10023000FEE7FEE7FEE7FEE7FEE7FEE7FEE7FEE796
:10024000FEE7FEE704480549054A064B70470000F3
:10025000310C00088901000878010020780700208F
:10026000780300207803002070477047704770477C
:100270007047754600F028F8AE46050069465346BB
:1002800020F00700854618B020B5FFF7DBFFBDE87A
:1002900020404FF000064FF000074FF000084FF0ED
:1002A000000B21F00701AC46ACE8C009ACE8C0097E
:1002B000ACE8C009ACE8C0098D4670470446AFF30E
:1002C00000802046FFF7A9FF004870471801002072
:1002D00000BFFEE770B53748047825460821364848
:1002E00000F02EFA05EBD5714910A5EB41018842CB
:1002F0005ED16410254604212F4800F021FA05EB59
:10030000D5714910A5EB4101884251D164102546B1
:100310000221294800F014FA05EBD5714910A5EB2C
:100320004101884244D1641025460121224800F051
:1003300007FA05EBD5714910A5EB4101884237D189
:10034000641025464FF400411C4800F0F9F905EB14
:10035000D5714910A5EB4101884229D16410254689
:100360004FF48041154800F0EBF905EBD5714910C9
:10037000A5EB410188421BD164102546202110487D
:1003800000F0DEF905EBD5714910A5EB410188427B
:100390000ED1641025461021094800F0D1F905EB73
:1003A000D5714910A5EB4101884201D1012070BDF2
:1003B0000020FCE721000020001402400008024059
:1003C000001002401CB50121342000F0E9FA302071
:1003D000009000208DF8040003208DF80500012016
:1003E0008DF807006946114800F062F94FF440406B
:1003F000009000208DF8040003208DF805000120F6
:100400008DF8070069460A4800F052F90F20009065
:1004100000208DF8040003208DF8050001208DF8E0
:1004200007006946034800F043F91CBD0010024074
:1004300000080240001402407047000010B501207F
:1004400000F0E0F8D8B1C82000F0BCFC01210C4855
:1004500000F076F9012812D100F07FF900F07DF963
:1004600000F07BF900F079F906480078401C054956
:100470000870002004490870012000F0BDF810BD8C
:1004800000100240200000202300002010B50220B0
:1004900000F0B8F800285DD0C82000F093FC0221DD
:1004A0002D4800F04DF9012854D100F056F900F024
:1004B00054F900F052F900F050F92849087800EB9F
:1004C000D0714910A0EB410151B9FFF703FF01289A
:1004D00002D1234908703AE002202149087036E031
:1004E0001E49087800EBD0714910A0EB41010129A9
:1004F0002DD11B48007818B11948007802280AD17C
:10050000FFF7E8FE012802D1154908701FE002201C
:10051000134908701BE012480078012807D100F049
:100520009DFA1049087003200D4908700FE00C482F
:10053000007803280BD1002008490870094800788A
:100540000949087000200749087005490870022011
:1005500000F052F810BD0000001002402000002002
:100560002300002022000020210000200EB50121E0
:10057000880300F025FA0021042000F04FFA012042
:10058000009000208DF8040008208DF8050001205F
:100590008DF80600684600F041F806208DF8080046
:1005A00001208DF809008DF80A008DF80B0002A8D3
:1005B00000F0B8F90121042000F030FA0220009088
:1005C00000208DF8040008208DF8050001208DF82A
:1005D0000600684600F022F807208DF80800012088
:1005E0008DF8090002208DF80A0001208DF80B001B
:1005F00002A800F097F90EBD01490860704700009D
:10060000143C014001460020034A12680A400AB126
:10061000012000E000207047143C014000212349E4
:100620008279002A3AD00A46126803689A430B4638
:100630001A600A1D126803689A430B1D1A6002793A
:1006400011440A6803681A430A60184A083212689B
:1006500003689A43154B08331A601A1D1268036821
:100660009A43124B0C331A604279102A0ED11A1F8A
:10067000126803681A430D4B08331A601A1D12687A
:1006800003681A43094B0C331A600DE0074942799D
:1006900011440A6803681A430A6005E002791144AC
:1006A0000A6803689A430A6070470000003C0140F2
:1006B000F0B50A4600210023002400BF3DE00125DB
:1006C00005FA01F3156805EA03049C4234D1056874
:1006D0004F000326BE40B543056015794E00B54076
:1006E0000668354305601579012D02D01579022D74
:1006F00016D185684F000326BE40B5438560557905
:100700004E00B540866835438560456801268E40B9
:10071000B5434560456896798E40B6B2354345602D
:10072000C5684F000326BE40B543C560D5794E006D
:10073000B540C6683543C560491C1029BFD3F0BD1C
:100740000246002013690B400BB1012000E000209D
:1007500070474183704700BFFEE710B5012000F0ED
:10076000BBF8022000F02EFB10BD000070B505465E
:100770000E461446074901EBC501885D00F0ACF850
:1007800003E0207800F0B9F8641C20780028F8DC39
:1007900070BD00002E0000201CB50121602000F07B
:1007A000FFF80220009001208DF8040000208DF851
:1007B000060003208DF8050001208DF8070069462A
:1007C0002348FFF775FF009881B22148FFF7C1FF6A
:1007D0004FF44040009001208DF8040000208DF877
:1007E000060003208DF8050001208DF807006946FA
:1007F0001848FFF75DFF009881B21648FFF7A9FF80
:100800000120154908601549C1F8BC021449086067
:10081000322000F0D7FA302000F05EF8012000F01E
:10082000D1FA302000F058F8012000F0CBFA0C206B
:1008300000F052F8012000F0C5FA012000F04CF859
:100840001E2000F0BFFA062000F046F81CBD000094
:1008500000180240001402408402434200804242D9
:10086000B88242421CB50121482000F099F840F6B8
:100870000C60009001208DF8040000208DF8060027
:1008800003208DF8050001208DF807006946104807
:10089000FFF70EFF009881B20D48FFF75AFF4FF4A3
:1008A0004250009001208DF8040000208DF80600D1
:1008B00003208DF8050001208DF8070069460548E2
:1008C000FFF7F6FE009881B20248FFF742FF1CBD19
:1008D00000180240000C024010B50446012000F050
:1008E00071FAF82000F0F4F804F0F00000F0F0F8ED
:1008F0002107080E00F0ECF810BD10B504460120E9
:1009000000F060FAFA2000F0E3F804F0F00000F0E4
:10091000DFF82107080E00F0DBF810BD00BFFEE78E
:100920007047000070B5002100230F22C4781CB36B
:10093000174C246804F4E064C4F5E064C4F30721B0
:10094000C1F10404E3B20A4144789C40E1B28478E6
:10095000144021430C07210E0E4C05786155047894
:1009600004F01F050124AC4005786D11AD0005F1C0
:10097000E025C5F8004109E0047804F01F050124D2
:10098000AC40054D0678761145F8264070BD000054
:100990000CED00E000E400E080E100E070470000C2
:1009A00029B1064A12680243044B1A6004E0034A64
:1009B00012688243014B1A607047000030380240D1
:1009C00029B1064A12680243044B1A6004E0034A44
:1009D00012688243014B1A6070470000443802409D
:1009E000704700001CB501211020FFF7D9FF0F2030
:1009F000009000208DF8040003208DF805000120F0
:100A00008DF8070069460448FFF752FE009881B24E
:100A10000148FFF79EFE1CBD0010024030B50022C9
:100A20008B071C0F0F2303FA04F20B4B8C1053F8A7
:100A300024309343084C8D1044F8253023468C1005
:100A400053F824308C07240F00FA04F42343024C9B
:100A50008D1044F8253030BD0838014010B5102104
:100A60001848FFF76DFEC40120211648FFF768FE05
:100A700004EB80144FF480411348FFF761FE04EB50
:100A800040144FF400411048FFF75AFE04EB0014E5
:100A900001210E48FFF754FE04EBC00402210B486D
:100AA000FFF74EFE04EB800404210848FFF748FEE0
:100AB00004EB400408210548FFF742FE2044C0B281
:100AC00010BD000000100240000802400014024067
:100AD00070B50546002418E005FA04F000F0800027
:100AE00018B101200A49086002E0002008490860A6
:100AF00000200749091F0860052000F07FF9012048
:100B00000449C1F8B802601CC4B2082CE4DB70BD13
:100B1000BC824242008042420CB50020019000900D
:100B20003448006840F480303249086000BF3148E2
:100B3000006800F4003000900198401C019000987B
:100B400018B90198B0F5A04FF1D12A48006800F417
:100B5000003010B10120009001E0002000900098CA
:100B6000012846D123484030006840F08050214998
:100B7000403108602048006840F440401E49086049
:100B80001C48083000681B490831086008460068A6
:100B900040F4004008600846006840F4A050086037
:100BA0001648091F0860081F006840F08070091F80
:100BB000086000BF0F48006800F000700028F9D0FE
:100BC00040F205700E4908600A480830006820F0BD
:100BD00003000849083108600846006840F0020038
:100BE000086000BF03480830006800F00C000828C7
:100BF000F8D10CBD00380240007000400854400796
:100C0000003C0240042808D14FF0E021096941F07E
:100C100004014FF0E022116107E04FF0E021096983
:100C200021F004014FF0E02211617047704700008D
:100C300010B51548006840F4700013490860134867
:100C4000006840F001001149086000200F49083198
:100C500008600E4800680E4908400C4908600D48BD
:100C6000091D0860081F006820F48020091F086023
:100C7000002006490C310860FFF74EFF4FF000607E
:100C800001498039086010BD88ED00E0003802405D
:100C9000FFFFF6FE1030002410B540F225511D482C
:100CA00000F03EF810B31B4800F064F8C4B21A48D4
:100CB000008800F40040C8B91748008800F480405C
:100CC00060B10A2C03D000201349088020E01248AC
:100CD000008840F400401049088019E00D2C06D12E
:100CE0000D48008840F480400B49088010E00A4815
:100CF0000088C0F30D0009490C5407480088401CC7
:100D00000549088008460088C72801DD00200880C2
:100D100010BD0000001001402C00002050000020F9
:100D200070B50246002400230025002040F66A1614
:100D3000B14200D100BFC1F3421501F01F030126EB
:100D400006FA03F3012D02D19689334006E0022D05
:100D500002D1168A334001E0968A33400C120126F4
:100D600006FA04F41688344013B10CB1012000E0F7
:100D7000002070BD01468888C0F30800704700BF9E
:100D8000FEE7014600BF704710B504466FF004004F
:100D9000FFF738FFE11704EB5171C1F3C701074AB0
:100DA00011701046007800EB4001C1EBC0104FF607
:100DB000FF7101EAC0000249088010BD2400002034
:100DC0002600002070B504464FF4077094FBF0F045
:100DD000C6B24FF4077094FBF0F100FB114085B2EE
:100DE00005E04FF4077000F02FF8701EC6B2002E19
:100DF000F7D115B1284600F027F870BD0146114A19
:100E000012784A434FF0E0235A6100229A611A4651
:100E1000126942F001021A6100BF4FF0E02210692E
:100E200000F001021AB100F48032002AF5D04FF030
:100E3000E022126922F001024FF0E0231A61002241
:100E40009A617047240000200146114A12884A43E3
:100E50004FF0E0235A6100229A611A46126942F06B
:100E600001021A6100BF4FF0E022106900F0010298
:100E70001AB100F48032002AF5D04FF0E022126956
:100E800022F001024FF0E0231A6100229A617047BC
:100E900026000020A820FFF777FFFFF793FAFFF75F
:100EA000A1FDFFF763FBFFF7DDFCFFF775FCFFF724
:100EB00054FCFFF752FCFFF750FCFFF74EFC72A208
:100EC00000210846FFF752FC73A200210120FFF722
:100ED0004DFC75A200210220FFF748FC76A20021FC
:100EE0000320FFF743FC40F6B830FFF76BFFFFF736
:100EF00034FCFFF732FCFFF730FCFFF72EFCC2E0BA
:100F000010217048FFF71CFC6F49086020216D48D4
:100F1000FFF716FC6D49C1F8A8024FF480416C48F8
:100F2000FFF70EFC6849083908604FF40041684833
:100F3000FFF706FC6749C1F89C0201216648FFF7EC
:100F4000FFFB61492039086002216348FFF7F8FB85
:100F50005D492439086004215F48FFF7F1FB5F49D0
:100F6000086008215C48FFF7EBFB5A49C1F8B00262
:100F70005B49087800EBD0714910A0EB41010029D2
:100F800034D15848007898B957A20846FFF7EEFBCD
:100F900058A200210120FFF7E9FB5AA200210220FC
:100FA000FFF7E4FB44A200210320FFF7DFFB6AE028
:100FB0004C48007801280AD156A200210846FFF7C4
:100FC000D5FB57A200210120FFF7D0FB5BE045488D
:100FD0000078022857D144A200210846FFF7C6FB3B
:100FE00052A200210120FFF7C1FB4CE03C490878E8
:100FF00000EBD0714910A0EB4101012943D13948E0
:101000000078A0B94CA200210846FFF7AFFB39A237
:1010100000210120FFF7AAFB3AA200210220FFF7DE
:10102000A5FB25A200210320FFF7A0FB2BE02D4804
:10103000007801280AD144A200210846FFF796FB58
:1010400045A200210120FFF791FB1CE02548007814
:1010500002280AD138A200210846FFF787FB33A2F5
:1010600000210120FFF782FB0DE01E4800780328D5
:1010700009D13DA200210846FFF778FB3EA20021DE
:101080000120FFF773FB3BE75357307C31206D6F36
:1010900064657C68616E6400444950302D37206976
:1010A000707420707377640044656661756C742099
:1010B000707377643A0000003030303030303030B8
:1010C0000000000000100240AC0243420000434216
:1010D000000802400080414200140240B4824142B4
:1010E000200000202300002057616E74206F70657F
:1010F0006E3F0000506C65617365206970742070EC
:101100007377640044656661756C742070737764EE
:1011100020697300537563636573732100000000D9
:1011200057656C636F6D657E7E7E0000547279201A
:10113000616761696E2100004368616E67652070B8
:101140007377643F000000005073776420636F7210
:101150007265637421000000506C656173652069DD
:101160007074206E6577000041726520796F75207C
:10117000737572653F0000005365652074686520D3
:101180004C454473000000004FF04070E1EE100A3F
:1011900070470000B411000800000020500000005B
:1011A000C4010008041200085000002028070000B5
:1011B000E0010008808182838485868790919293E4
:1011C0009495969788898A8B8C8D8E8F98999A9B07
:1011D0009C9D9E9F00000000000000000000000099
:1011E0000000808182838485868790919293949574
:1011F000969788898A8B8C8D8E8F98999A9B9C9DC7
:041200009E9F0000AD
:040000050800018965
:00000001FF
