:020000040000FA
:1000000068060020250200000104000083030000B0
:10001000FD030000DF0200009D050000000000005D
:1000200000000000000000000000000025040000A7
:10003000E302000000000000030400003D05000092
:100040003F0200003F0200003F0200003F020000AC
:100050003F0200003F0200003F0200003F0200009C
:100060003F0200003F0200003F0200003F0200008C
:100070003F0200003F0200003F0200003F0200007C
:100080003F0200003F0200003F0200003F0200006C
:100090003F0200003F0200003F0200003F0200005C
:1000A0003F0200003F0200003F0200003F0200004C
:1000B0003F0200003F0200003F0200003F0200003C
:1000C0003F0200003F0200003F0200003F0200002C
:1000D0003F0200003F0200003F0200003F0200001C
:1000E0003F0200003F0200003F0200003F0200000C
:1000F0003F0200003F0200003F0200003F020000FC
:100100003F0200003F0200003F0200003F020000EB
:100110003F0200003F0200003F0200003F020000DB
:100120003F0200003F0200003F0200003F020000CB
:100130003F0200003F0200003F0200003F020000BB
:100140003F0200003F0200003F0200003F020000AB
:100150003F0200003F0200003F0200003F0200009B
:100160003F0200003F0200003F0200003F0200008B
:100170003F0200003F0200003F0200003F0200007B
:100180003F0200003F02000000F002F800F03AF8E1
:100190000AA090E8000C82448344AAF10107DA45E2
:1001A00001D100F02FF8AFF2090EBAE80F0013F0FA
:1001B000010F18BFFB1A43F0010318472C0600007B
:1001C0004C060000103A24BF78C878C1FAD852070C
:1001D00024BF30C830C144BF04680C6070470000C1
:1001E0000023002400250026103A28BF78C1FBD840
:1001F000520728BF30C148BF0B6070471FB51FBDF5
:1002000010B510BD00F031F81146FFF7F7FF00F010
:10021000ABFA00F04FF803B4FFF7F2FF03BC00F0B5
:1002200057F800000948804709480047FEE7FEE705
:10023000FEE7FEE7FEE7FEE7FEE7FEE7FEE7FEE796
:1002400004480549054A064B704700004105000077
:100250008901000068000020680600206802002074
:1002600068020020704770477047754600F02CF810
:10027000AE4605006946534620F00700854618B093
:1002800020B5FFF7DDFFBDE820404FF000064FF03E
:1002900000074FF000084FF0000B21F00701AC46BB
:1002A000ACE8C009ACE8C009ACE8C009ACE8C009DA
:1002B0008D46704710B50446AFF300802046BDE878
:1002C0001040FFF7A8BF000000487047040000205E
:1002D00001491820ABBEFEE726000200704700BFB0
:1002E000FEE77047F0B50A4600210023002400BF56
:1002F0003DE0012505FA01F3156805EA03049C4277
:1003000034D105684F000326BE40B543056015791A
:100310004E00B5400668354305601579012D02D0C1
:100320001579022D16D185684F000326BE40B543CE
:10033000856055794E00B5408668354385604568CF
:1003400001268E40B5434560456896798E40B6B229
:1003500035434560C5684F000326BE40B543C560C0
:10036000D5794E00B540C6683543C560491C102993
:10037000BFD3F0BD418370470AB1018300E04183E0
:10038000704700BFFEE700001CB50121482000F0C7
:1003900039F840F60C60009001208DF80400002030
:1003A0008DF8060003208DF8050001208DF8070068
:1003B00069461048FFF796FF40F68C610D48FFF73D
:1003C000D9FF4FF44250009001208DF80400002026
:1003D0008DF8060003208DF8050001208DF8070038
:1003E00069460548FFF77EFF4FF442510248FFF788
:1003F000C1FF1CBD00180240000C024000BFFEE718
:100400007047704729B1064A12680243044B1A60CC
:1004100004E0034A12688243014B1A6070470000EF
:1004200030380240704700000CB500200190009069
:100430003448006840F480303249086000BF3148D9
:10044000006800F4003000900198401C0190009872
:1004500018B90198B0F5A04FF1D12A48006800F40E
:10046000003010B10120009001E0002000900098C1
:10047000012846D123484030006840F0805021498F
:10048000403108602048006840F440401E49086040
:100490001C48083000681B4908310860084600689D
:1004A00040F4004008600846006840F4A05008602E
:1004B0001648091F0860081F006840F08070091F77
:1004C000086000BF0F48006800F000700028F9D0F5
:1004D00040F205700E4908600A480830006820F0B4
:1004E00003000849083108600846006840F002002F
:1004F000086000BF03480830006800F00C000828BE
:10050000F8D10CBD0038024000700040085440078C
:10051000003C0240042808D14FF0E021096941F075
:1005200004014FF0E022116107E04FF0E02109697A
:1005300021F004014FF0E022116170477047000084
:1005400010B51248006840F0010010490860002012
:100550000E49083108600D4800680D4908400B49F4
:1005600008600C48091D0860081F006820F48020FE
:10057000091F0860002005490C310860FFF754FF8F
:100580004FF000600449086010BD000000380240D0
:10059000FFFFF6FE1030002408ED00E000BFFEE78C
:1005A00010B5044604F0010028B10122D1023C48F4
:1005B000FFF7E2FE05E000224FF400613848FFF744
:1005C000DBFE04F00200022805D10122410234487A
:1005D000FFF7D2FE05E000224FF480613048FFF7BC
:1005E000CBFE04F00400042805D10122C1012C48EF
:1005F000FFF7C2FE05E000224FF400712848FFF724
:10060000BBFE04F00800082805D1012280212548FE
:10061000FFF7B2FE04E0002280212248FFF7ACFE83
:1006200004F01000102805D1012208211C48FFF712
:10063000A3FE04E0002208211948FFF79DFE04F004
:100640002000202805D1012204211548FFF794FE3F
:1006500004E0002204211248FFF78EFE04F040005F
:10066000402805D10122C1010E48FFF785FE05E0B3
:1006700000224FF400510B48FFF77EFE04F080008B
:10068000802805D1012241010648FFF775FE05E0EB
:1006900000224FF480510348FFF76EFE10BD0000AA
:1006A00000180240000C024010B504466FF0040030
:1006B000FFF730FFE11704EB5171C1F3C701074A9F
:1006C00011701046007800EB4001C1EBC0104FF6EE
:1006D000FF7101EAC0000249088010BD000000203F
:1006E0000200002070B504464FF4077094FBF0F050
:1006F000C6B24FF4077094FBF0F100FB114085B2D5
:1007000005E04FF4077000F009F8701EC6B2002E25
:10071000F7D115B1284600F001F870BD0146114A25
:1007200012884A434FF0E0235A6100229A611A4628
:10073000126942F001021A6100BF4FF0E022106915
:1007400000F001021AB100F48032002AF5D04FF017
:10075000E022126922F001024FF0E0231A61002228
:100760009A61704702000020FFF70EFEA820FFF7F5
:100770009BFF37E00120FFF713FF4FF4FA70FFF7FC
:10078000B1FF0320FFF70CFF4FF4FA70FFF7AAFF49
:100790000720FFF705FF4FF4FA70FFF7A3FF0F20C4
:1007A000FFF7FEFE4FF4FA70FFF79CFF1F20FFF7E4
:1007B000F7FE4FF4FA70FFF795FF3F20FFF7F0FECA
:1007C0004FF4FA70FFF78EFF7F20FFF7E9FE4FF43A
:1007D000FA70FFF787FFFF20FFF7E2FE4FF4FA7091
:1007E000FFF780FFC6E700000808000000000020B7
:1007F00004000000C40100000C08000004000020F8
:0C08000064060000E001000000000000A1
:04000005000001896D
:00000001FF
