:020000040800F2
:1000000068060020290200080B030008030300080B
:1000100007030008FD020008690400080000000052
:100020000000000000000000000000000F030008B6
:1000300001030008000000000D030008FD03000894
:10004000430200084302000843020008430200087C
:10005000430200084302000843020008430200086C
:10006000430200084302000843020008430200085C
:10007000430200084302000843020008430200084C
:10008000430200084302000843020008430200083C
:10009000430200084302000843020008430200082C
:1000A000430200084302000843020008430200081C
:1000B000430200084302000843020008430200080C
:1000C00043020008430200084302000843020008FC
:1000D00043020008430200084302000843020008EC
:1000E00043020008430200084302000843020008DC
:1000F00043020008430200084302000843020008CC
:1001000043020008430200084302000843020008BB
:1001100043020008430200084302000843020008AB
:10012000430200084302000843020008430200089B
:10013000430200084302000843020008430200088B
:10014000430200084302000843020008430200087B
:10015000430200084302000843020008430200086B
:10016000430200084302000843020008430200085B
:10017000430200084302000843020008430200084B
:10018000430200084302000800F002F800F03CF8C7
:100190000AA090E8000C82448344AAF10107DA45E2
:1001A00001D100F031F8AFF2090EBAE80F0013F0F8
:1001B000010F18BFFB1A43F001031847C4020000E7
:1001C000E4020000103A24BF78C878C1FAD8520778
:1001D00024BF30C830C144BF04680C6070470000C1
:1001E0000023002400250026103A28BF78C1FBD840
:1001F000520728BF30C148BF0B6070471FB500F0E1
:100200003AF91FBD10B510BD00F031F81146FFF7E7
:10021000F5FF00F02BF900F04FF803B4FFF7F2FF01
:1002200003BC00F053F80000094880470948004724
:10023000FEE7FEE7FEE7FEE7FEE7FEE7FEE7FEE796
:10024000FEE7FEE704480549054A064B70470000F3
:1002500001040008890100086800002068060020E9
:10026000680200206802002070477047704775469A
:1002700000F028F8AE4605006946534620F0070016
:10028000854618B020B5FFF7DDFFBDE820404FF0F0
:1002900000064FF000074FF000084FF0000B21F070
:1002A0000701AC46ACE8C009ACE8C009ACE8C0093D
:1002B000ACE8C0098D4670470446AFF30080204685
:1002C000FFF7ABFF004870470800002001491820E5
:1002D000ABBEFEE72600020070470000054801683B
:1002E00001F19A0101600448026802F1AB02026068
:1002F000FEE70000000000200400002000BFFEE731
:10030000704700BFFEE700BFFEE7704770477047C9
:100310000CB50020019000903448006840F4803013
:100320003249086000BF3148006800F40030009096
:100330000198401C0190009818B90198B0F5A04FA1
:10034000F1D12A48006800F4003010B1012000907B
:1003500001E0002000900098012846D12348403059
:10036000006840F080502149403108602048006812
:1003700040F440401E4908601C48083000681B4992
:10038000083108600846006840F4004008600846EC
:10039000006840F4A05008601648091F0860081F54
:1003A000006840F08070091F086000BF0F480068B7
:1003B00000F000700028F9D040F205700E49086086
:1003C0000A480830006820F0030008490831086036
:1003D0000846006840F00200086000BF034808308B
:1003E000006800F00C000828F8D10CBD003802406D
:1003F0000070004008544007003C02407047000075
:1004000010B51548006840F470001349086013489F
:10041000006840F001001149086000200F490831D0
:1004200008600E4800680E4908400C4908600D48F5
:10043000091D0860081F006820F48020091F08605B
:10044000002006490C310860FFF762FF4FF00060A2
:1004500001498039086010BD88ED00E00038024095
:10046000FFFFF6FE1030002400BFFEE710B5FFF7D7
:1004700035FF002010BD4FF04070E1EE100A7047CC
:10048000A00400080000002008000000C4010008CB
:10049000A80400080800002060060000E001000831
:0804A000110000002200000021
:040000050800018965
:00000001FF
